:100000000C942A000C943F000C943F000C943F0089
:100010000C943F000C943F000C943F000C943F0064
:100020000C943F000C943F000C943F000C943F0054
:100030000C943F000C943F000C943F000C943F0044
:100040000C943F000C943F000C943F000C943F0034
:100050000C943F0011241FBECFE5D8E0DEBFCDBF1A
:1000600010E0A0E6B0E0ECE9F9E002C005900D92E6
:10007000AA37B107D9F70E94AA040C94CC040C94B7
:1000800000008EBB1FBA6DBBE29AE19AE199FECFE8
:1000900008958EBB9FBBE09A8DB30895823429F1F9
:1000A000833420F4813409F06AC006C08334B1F18E
:1000B000843409F064C04BC0413059F42AB381E064
:1000C00090E002C0880F991F6A95E2F7282B2ABB9F
:1000D00008952AB381E090E002C0880F991F6A95C5
:1000E000E2F7809582238ABB0895413059F427B303
:1000F00081E090E002C0880F991F6A95E2F7282BF3
:1001000027BB089527B381E090E002C0880F991FB4
:100110006A95E2F78095822387BB0895413059F4B0
:1001200024B381E090E002C0880F991F6A95E2F73E
:10013000282B24BB089524B381E090E002C0880FEF
:10014000991F6A95E2F78095822384BB0895413018
:1001500059F421B381E090E002C0880F991F6A959D
:10016000E2F7282B21BB089521B381E090E002C083
:10017000880F991F6A95E2F78095822381BB0895C5
:10018000823429F1833420F4813409F06AC006C036
:100190008334B1F1843409F064C04BC0413059F468
:1001A0002BB381E090E002C0880F991F6A95E2F7B7
:1001B000282B2BBB08952BB381E090E002C0880F61
:1001C000991F6A95E2F7809582238BBB0895413091
:1001D00059F428B381E090E002C0880F991F6A9516
:1001E000E2F7282B28BB089528B381E090E002C0F5
:1001F000880F991F6A95E2F78095822388BB08953E
:10020000413059F425B381E090E002C0880F991F76
:100210006A95E2F7282B25BB089525B381E090E08D
:1002200002C0880F991F6A95E2F78095822385BBEB
:100230000895413059F422B381E090E002C0880F64
:10024000991F6A95E2F7282B22BB089522B381E01B
:1002500090E002C0880F991F6A95E2F7809582238B
:1002600082BB0895823469F0833418F4813429F410
:1002700006C0833441F08434C1F080E0089529B38E
:1002800003C026B301C023B381E090E0062E02C074
:10029000880F991F0A94E2F730E08223932302C06B
:1002A000959587956A95E2F7089520B381E090E0EF
:1002B000062E02C0880F991F0A94E2F730E08223CD
:1002C000932302C0959587956A95E2F70895823445
:1002D000A9F0833418F4813489F505C08334C9F05A
:1002E000843461F521C02BB381E090E002C0880F17
:1002F000991F6A95E2F728272BBB089528B381E060
:1003000090E002C0880F991F6A95E2F7282728BB62
:10031000089525B381E090E002C0880F991F6A9587
:10032000E2F7282725BB089522B381E090E002C0C0
:10033000880F991F6A95E2F7282722BB0895823417
:1003400061F0833418F4813469F405C0833439F0E2
:10035000843441F406C06ABB089567BB089564BB4A
:10036000089561BB0895823461F0833418F48134B8
:1003700069F405C0833439F0843441F406C06BBBA2
:10038000089568BB089565BB089562BB08958234E3
:1003900069F0833418F4813429F406C0833441F0C1
:1003A000843441F080E0089589B3089586B30895B8
:1003B00083B3089580B308956F70823489F08334D5
:1003C00018F4813409F505C0833489F08434E1F4EC
:1003D00015C08BB3807F8BBB8BB3682B6BBB089531
:1003E00088B3807F88BB88B3682B68BB089585B3CA
:1003F000807F85BB85B3682B65BB089582B3807F02
:1004000082BB82B3682B62BB08956295607F8234A1
:1004100089F0833418F4813409F505C0833489F0F8
:100420008434E1F415C08BB38F708BBB8BB3682B16
:100430006BBB089588B38F7088BB88B3682B68BB8B
:10044000089585B38F7085BB85B3682B65BB089510
:1004500082B38F7082BB82B3682B62BB08958234F3
:1004600029F1833420F4813409F06AC006C0833452
:10047000B1F1843409F064C04BC0413059F42BB35E
:1004800081E090E002C0880F991F6A95E2F7282B5F
:100490002BBB08952BB381E090E002C0880F991F19
:1004A0006A95E2F7809582238BBB0895413059F419
:1004B00028B381E090E002C0880F991F6A95E2F7A7
:1004C000282B28BB089528B381E090E002C0880F54
:1004D000991F6A95E2F78095822388BB0895413081
:1004E00059F425B381E090E002C0880F991F6A9506
:1004F000E2F7282B25BB089525B381E090E002C0E8
:10050000880F991F6A95E2F78095822385BB08952D
:10051000413059F422B381E090E002C0880F991F66
:100520006A95E2F7282B22BB089522B381E090E080
:1005300002C0880F991F6A95E2F78095822382BBDB
:100540000895413049F0413028F0423039F04330CD
:1005500071F408C0860F0895861B0895689F802D4A
:1005600011240895662319F00E94C004089580E0C4
:100570000895DF93CF93CDB7DEB72A970FB6F894DF
:10058000DEBF0FBECDBFDE011196E0E6F0E09AE0DF
:1005900001900D929150E1F7FE01E60FF11D61818E
:1005A0000E94B3012A960FB6F894DEBF0FBECDBFEE
:1005B000CF91DF9108950F931F93282F062F142FAB
:1005C000842F6AE00E94C004822F692F0E94B90222
:1005D00088E893E128EC30E0F9013197F1F70197D1
:1005E000D9F7812F6AE00E94C004682F802F0E94F3
:1005F000B90288E893E128EC30E0F9013197F1F78E
:100600000197D9F71F910F9108956FEF0E949F01F5
:1006100008950E946701089540E00E94C000089577
:1006200041E00E94C000089541E00E944E000895FC
:100630000F931F9381E460E041E00E94C00000EA54
:100640001FE0C8010197F1F781E460E040E00E94FB
:10065000C000C8010197F1F71F910F9108951F93F2
:10066000182F682F62956F7081E40E94050281E463
:1006700061E041E00E94C0000E94180381E4612F04
:100680000E94050281E461E041E00E94C0000E94F6
:10069000180380ED97E00197F1F71F910895CF932C
:1006A000DF93EC0103C00E942F03219688818823E9
:1006B000D1F7DF91CF9108951F93182F682F62957E
:1006C0006F7081E40E94050281E461E040E00E94D5
:1006D000C0000E94180381E4612F0E94050281E49A
:1006E00061E040E00E94C0000E94180380ED97E0A6
:1006F0000197F1F71F910895982F8150823070F47F
:10070000613160F4662351F0913019F4862F8158DD
:1007100006C0923021F4862F815401C080E80E94E7
:100720005C0380ED97E00197F1F7089581E00E9466
:100730005C0380E29EE40197F1F70895EF92FF9247
:100740000F931F9381E464E041E00E944E0081E436
:1007500065E041E00E944E0081E466E041E00E94D5
:100760004E0081E467E041E00E944E0081E460E0D9
:1007700041E00E944E0081E462E041E00E944E00B0
:1007800081E461E041E00E944E0081E462E040E0EB
:100790000E94C00082E00E945C0380E2E82E8EE4AA
:1007A000F82EC7010197F1F788E20E945C0300ED83
:1007B00017E0C8010197F1F78EE00E945C03C801C1
:1007C0000197F1F781E00E945C03C7010197F1F7FF
:1007D00086E00E945C03C8010197F1F71F910F9119
:1007E000FF90EF9008950F931F93DF93CF93CDB7B2
:1007F000DEB760970FB6F894DEBF0FBECDBFDE0147
:100800001196EAE6F0E080E101900D928150E1F767
:1008100000E084E460E041E00E94C00084E461E024
:1008200041E00E94C00084E462E041E00E94C00018
:1008300084E463E041E00E94C00084E4602F40E073
:100840000E94C00010E0612F6C5F84E40E943201BE
:10085000882361F4E02FF0E0EE0FFF1FEE0FFF1F83
:10086000E10FF11DEC0FFD1F818107C01F5F1430E8
:1008700051F70F5F043069F68FEF60960FB6F8946A
:10088000DEBF0FBECDBFCF91DF911F910F910895B5
:1008900084E460E041E00E944E0084E461E041E0D5
:1008A0000E944E0084E462E041E00E944E0084E435
:1008B00063E041E00E944E0084E464E040E00E9476
:1008C0004E0084E465E040E00E944E0084E466E06F
:1008D00040E00E944E0084E467E040E00E944E0049
:1008E00084E464E041E00E942F0284E465E041E09A
:1008F0000E942F0284E466E041E00E942F0284E41B
:1009000067E041E00E942F0208950E94320108959D
:1009100060E00E949F01089540E00E944E0008950B
:100920000E94DC0108951F93182F60E041E00E94AF
:100930004E00812F61E041E00E944E00812F62E075
:1009400041E00E944E00812F63E041E00E944E0092
:100950001F910895CF93DF930E949E030E94480445
:10096000C8ECD0E00E94F3038F3F11F00E942F03E8
:1009700084EC99E0FE013197F1F7019799F3FACFF2
:10098000991B79E004C0991F961708F0961B881FE1
:0C0990007A95C9F780950895F894FFCF80
:10099C003F065B4F666D7D077F6F3738392F3435D7
:0A09AC00362A3132332D41303D2B45
:00000001FF
